{
  "_format": "hh-sol-artifact-1",
  "contractName": "AuditToken",
  "sourceName": "contracts/AuditToken.sol",
  "abi": [
    {
      "inputs": [],
      "stateMutability": "nonpayable",
      "type": "constructor"
    },
    {
      "inputs": [
        {
          "internalType": "address",
          "name": "sender",
          "type": "address"
        },
        {
          "internalType": "uint256",
          "name": "tokenId",
          "type": "uint256"
        },
        {
          "internalType": "address",
          "name": "owner",
          "type": "address"
        }
      ],
      "name": "ERC721IncorrectOwner",
      "type": "error"
    },
    {
      "inputs": [
        {
          "internalType": "address",
          "name": "operator",
          "type": "address"
        },
        {
          "internalType": "uint256",
          "name": "tokenId",
          "type": "uint256"
        }
      ],
      "name": "ERC721InsufficientApproval",
      "type": "error"
    },
    {
      "inputs": [
        {
          "internalType": "address",
          "name": "approver",
          "type": "address"
        }
      ],
      "name": "ERC721InvalidApprover",
      "type": "error"
    },
    {
      "inputs": [
        {
          "internalType": "address",
          "name": "operator",
          "type": "address"
        }
      ],
      "name": "ERC721InvalidOperator",
      "type": "error"
    },
    {
      "inputs": [
        {
          "internalType": "address",
          "name": "owner",
          "type": "address"
        }
      ],
      "name": "ERC721InvalidOwner",
      "type": "error"
    },
    {
      "inputs": [
        {
          "internalType": "address",
          "name": "receiver",
          "type": "address"
        }
      ],
      "name": "ERC721InvalidReceiver",
      "type": "error"
    },
    {
      "inputs": [
        {
          "internalType": "address",
          "name": "sender",
          "type": "address"
        }
      ],
      "name": "ERC721InvalidSender",
      "type": "error"
    },
    {
      "inputs": [
        {
          "internalType": "uint256",
          "name": "tokenId",
          "type": "uint256"
        }
      ],
      "name": "ERC721NonexistentToken",
      "type": "error"
    },
    {
      "anonymous": false,
      "inputs": [
        {
          "indexed": true,
          "internalType": "address",
          "name": "owner",
          "type": "address"
        },
        {
          "indexed": true,
          "internalType": "address",
          "name": "approved",
          "type": "address"
        },
        {
          "indexed": true,
          "internalType": "uint256",
          "name": "tokenId",
          "type": "uint256"
        }
      ],
      "name": "Approval",
      "type": "event"
    },
    {
      "anonymous": false,
      "inputs": [
        {
          "indexed": true,
          "internalType": "address",
          "name": "owner",
          "type": "address"
        },
        {
          "indexed": true,
          "internalType": "address",
          "name": "operator",
          "type": "address"
        },
        {
          "indexed": false,
          "internalType": "bool",
          "name": "approved",
          "type": "bool"
        }
      ],
      "name": "ApprovalForAll",
      "type": "event"
    },
    {
      "anonymous": false,
      "inputs": [
        {
          "indexed": true,
          "internalType": "address",
          "name": "from",
          "type": "address"
        },
        {
          "indexed": true,
          "internalType": "address",
          "name": "to",
          "type": "address"
        },
        {
          "indexed": true,
          "internalType": "uint256",
          "name": "tokenId",
          "type": "uint256"
        }
      ],
      "name": "Transfer",
      "type": "event"
    },
    {
      "inputs": [
        {
          "internalType": "address",
          "name": "to",
          "type": "address"
        },
        {
          "internalType": "uint256",
          "name": "tokenId",
          "type": "uint256"
        }
      ],
      "name": "approve",
      "outputs": [],
      "stateMutability": "nonpayable",
      "type": "function"
    },
    {
      "inputs": [
        {
          "internalType": "address",
          "name": "owner",
          "type": "address"
        }
      ],
      "name": "balanceOf",
      "outputs": [
        {
          "internalType": "uint256",
          "name": "",
          "type": "uint256"
        }
      ],
      "stateMutability": "view",
      "type": "function"
    },
    {
      "inputs": [
        {
          "internalType": "uint256",
          "name": "tokenId",
          "type": "uint256"
        }
      ],
      "name": "getApproved",
      "outputs": [
        {
          "internalType": "address",
          "name": "",
          "type": "address"
        }
      ],
      "stateMutability": "view",
      "type": "function"
    },
    {
      "inputs": [
        {
          "internalType": "address",
          "name": "owner",
          "type": "address"
        },
        {
          "internalType": "address",
          "name": "operator",
          "type": "address"
        }
      ],
      "name": "isApprovedForAll",
      "outputs": [
        {
          "internalType": "bool",
          "name": "",
          "type": "bool"
        }
      ],
      "stateMutability": "view",
      "type": "function"
    },
    {
      "inputs": [
        {
          "internalType": "string[]",
          "name": "_vulnerabilities",
          "type": "string[]"
        },
        {
          "internalType": "uint256",
          "name": "_securityScore",
          "type": "uint256"
        },
        {
          "internalType": "uint256",
          "name": "_gasScore",
          "type": "uint256"
        }
      ],
      "name": "mint",
      "outputs": [
        {
          "internalType": "address",
          "name": "",
          "type": "address"
        }
      ],
      "stateMutability": "nonpayable",
      "type": "function"
    },
    {
      "inputs": [],
      "name": "name",
      "outputs": [
        {
          "internalType": "string",
          "name": "",
          "type": "string"
        }
      ],
      "stateMutability": "view",
      "type": "function"
    },
    {
      "inputs": [
        {
          "internalType": "uint256",
          "name": "tokenId",
          "type": "uint256"
        }
      ],
      "name": "ownerOf",
      "outputs": [
        {
          "internalType": "address",
          "name": "",
          "type": "address"
        }
      ],
      "stateMutability": "view",
      "type": "function"
    },
    {
      "inputs": [
        {
          "internalType": "address",
          "name": "from",
          "type": "address"
        },
        {
          "internalType": "address",
          "name": "to",
          "type": "address"
        },
        {
          "internalType": "uint256",
          "name": "tokenId",
          "type": "uint256"
        }
      ],
      "name": "safeTransferFrom",
      "outputs": [],
      "stateMutability": "nonpayable",
      "type": "function"
    },
    {
      "inputs": [
        {
          "internalType": "address",
          "name": "from",
          "type": "address"
        },
        {
          "internalType": "address",
          "name": "to",
          "type": "address"
        },
        {
          "internalType": "uint256",
          "name": "tokenId",
          "type": "uint256"
        },
        {
          "internalType": "bytes",
          "name": "data",
          "type": "bytes"
        }
      ],
      "name": "safeTransferFrom",
      "outputs": [],
      "stateMutability": "nonpayable",
      "type": "function"
    },
    {
      "inputs": [
        {
          "internalType": "address",
          "name": "operator",
          "type": "address"
        },
        {
          "internalType": "bool",
          "name": "approved",
          "type": "bool"
        }
      ],
      "name": "setApprovalForAll",
      "outputs": [],
      "stateMutability": "nonpayable",
      "type": "function"
    },
    {
      "inputs": [
        {
          "internalType": "bytes4",
          "name": "interfaceId",
          "type": "bytes4"
        }
      ],
      "name": "supportsInterface",
      "outputs": [
        {
          "internalType": "bool",
          "name": "",
          "type": "bool"
        }
      ],
      "stateMutability": "view",
      "type": "function"
    },
    {
      "inputs": [],
      "name": "symbol",
      "outputs": [
        {
          "internalType": "string",
          "name": "",
          "type": "string"
        }
      ],
      "stateMutability": "view",
      "type": "function"
    },
    {
      "inputs": [],
      "name": "tokenCounter",
      "outputs": [
        {
          "internalType": "uint256",
          "name": "",
          "type": "uint256"
        }
      ],
      "stateMutability": "view",
      "type": "function"
    },
    {
      "inputs": [
        {
          "internalType": "uint256",
          "name": "",
          "type": "uint256"
        }
      ],
      "name": "tokenMetadata",
      "outputs": [
        {
          "internalType": "uint32",
          "name": "securityScore",
          "type": "uint32"
        },
        {
          "internalType": "uint32",
          "name": "gasScore",
          "type": "uint32"
        }
      ],
      "stateMutability": "view",
      "type": "function"
    },
    {
      "inputs": [
        {
          "internalType": "uint256",
          "name": "tokenId",
          "type": "uint256"
        }
      ],
      "name": "tokenURI",
      "outputs": [
        {
          "internalType": "string",
          "name": "",
          "type": "string"
        }
      ],
      "stateMutability": "view",
      "type": "function"
    },
    {
      "inputs": [
        {
          "internalType": "address",
          "name": "from",
          "type": "address"
        },
        {
          "internalType": "address",
          "name": "to",
          "type": "address"
        },
        {
          "internalType": "uint256",
          "name": "tokenId",
          "type": "uint256"
        }
      ],
      "name": "transferFrom",
      "outputs": [],
      "stateMutability": "nonpayable",
      "type": "function"
    }
  ],
  "bytecode": "0x60806040523480156200001157600080fd5b506040518060400160405280601181526020017f41756469742050726f6f6620546f6b656e0000000000000000000000000000008152506040518060400160405280600381526020017f415054000000000000000000000000000000000000000000000000000000000081525081600090816200008f91906200032c565b508060019081620000a191906200032c565b505050600060068190555062000413565b600081519050919050565b7f4e487b7100000000000000000000000000000000000000000000000000000000600052604160045260246000fd5b7f4e487b7100000000000000000000000000000000000000000000000000000000600052602260045260246000fd5b600060028204905060018216806200013457607f821691505b6020821081036200014a5762000149620000ec565b5b50919050565b60008190508160005260206000209050919050565b60006020601f8301049050919050565b600082821b905092915050565b600060088302620001b47fffffffffffffffffffffffffffffffffffffffffffffffffffffffffffffffff8262000175565b620001c0868362000175565b95508019841693508086168417925050509392505050565b6000819050919050565b6000819050919050565b60006200020d620002076200020184620001d8565b620001e2565b620001d8565b9050919050565b6000819050919050565b6200022983620001ec565b62000241620002388262000214565b84845462000182565b825550505050565b600090565b6200025862000249565b620002658184846200021e565b505050565b5b818110156200028d57620002816000826200024e565b6001810190506200026b565b5050565b601f821115620002dc57620002a68162000150565b620002b18462000165565b81016020851015620002c1578190505b620002d9620002d08562000165565b8301826200026a565b50505b505050565b600082821c905092915050565b60006200030160001984600802620002e1565b1980831691505092915050565b60006200031c8383620002ee565b9150826002028217905092915050565b6200033782620000b2565b67ffffffffffffffff811115620003535762000352620000bd565b5b6200035f82546200011b565b6200036c82828562000291565b600060209050601f831160018114620003a457600084156200038f578287015190505b6200039b85826200030e565b8655506200040b565b601f198416620003b48662000150565b60005b82811015620003de57848901518255600182019150602085019450602081019050620003b7565b86831015620003fe5784890151620003fa601f891682620002ee565b8355505b6001600288020188555050505b505050505050565b61259680620004236000396000f3fe608060405234801561001057600080fd5b50600436106101005760003560e01c806370a0823111610097578063b88d4fde11610066578063b88d4fde146102d2578063c87b56dd146102ee578063d082e3811461031e578063e985e9c51461033c57610100565b806370a0823114610238578063875da89c1461026857806395d89b4114610298578063a22cb465146102b657610100565b806323b872dd116100d357806323b872dd1461019f57806342842e0e146101bb5780636352211e146101d75780636914db601461020757610100565b806301ffc9a71461010557806306fdde0314610135578063081812fc14610153578063095ea7b314610183575b600080fd5b61011f600480360381019061011a91906118ad565b61036c565b60405161012c91906118f5565b60405180910390f35b61013d61044e565b60405161014a91906119a0565b60405180910390f35b61016d600480360381019061016891906119f8565b6104e0565b60405161017a9190611a66565b60405180910390f35b61019d60048036038101906101989190611aad565b6104fc565b005b6101b960048036038101906101b49190611aed565b610512565b005b6101d560048036038101906101d09190611aed565b610614565b005b6101f160048036038101906101ec91906119f8565b610634565b6040516101fe9190611a66565b60405180910390f35b610221600480360381019061021c91906119f8565b610646565b60405161022f929190611b5f565b60405180910390f35b610252600480360381019061024d9190611b88565b61068a565b60405161025f9190611bc4565b60405180910390f35b610282600480360381019061027d9190611dfa565b610744565b60405161028f9190611a66565b60405180910390f35b6102a0610824565b6040516102ad91906119a0565b60405180910390f35b6102d060048036038101906102cb9190611e95565b6108b6565b005b6102ec60048036038101906102e79190611f76565b6108cc565b005b610308600480360381019061030391906119f8565b6108e9565b60405161031591906119a0565b60405180910390f35b610326610952565b6040516103339190611bc4565b60405180910390f35b61035660048036038101906103519190611ff9565b610958565b60405161036391906118f5565b60405180910390f35b60007f80ac58cd000000000000000000000000000000000000000000000000000000007bffffffffffffffffffffffffffffffffffffffffffffffffffffffff1916827bffffffffffffffffffffffffffffffffffffffffffffffffffffffff1916148061043757507f5b5e139f000000000000000000000000000000000000000000000000000000007bffffffffffffffffffffffffffffffffffffffffffffffffffffffff1916827bffffffffffffffffffffffffffffffffffffffffffffffffffffffff1916145b806104475750610446826109ec565b5b9050919050565b60606000805461045d90612068565b80601f016020809104026020016040519081016040528092919081815260200182805461048990612068565b80156104d65780601f106104ab576101008083540402835291602001916104d6565b820191906000526020600020905b8154815290600101906020018083116104b957829003601f168201915b5050505050905090565b60006104eb82610a56565b506104f582610ade565b9050919050565b61050e8282610509610b1b565b610b23565b5050565b600073ffffffffffffffffffffffffffffffffffffffff168273ffffffffffffffffffffffffffffffffffffffff16036105845760006040517f64a0ae9200000000000000000000000000000000000000000000000000000000815260040161057b9190611a66565b60405180910390fd5b60006105988383610593610b1b565b610b35565b90508373ffffffffffffffffffffffffffffffffffffffff168173ffffffffffffffffffffffffffffffffffffffff161461060e578382826040517f64283d7b00000000000000000000000000000000000000000000000000000000815260040161060593929190612099565b60405180910390fd5b50505050565b61062f838383604051806020016040528060008152506108cc565b505050565b600061063f82610a56565b9050919050565b60076020528060005260406000206000915090508060010160009054906101000a900463ffffffff16908060010160049054906101000a900463ffffffff16905082565b60008073ffffffffffffffffffffffffffffffffffffffff168273ffffffffffffffffffffffffffffffffffffffff16036106fd5760006040517f89c62b640000000000000000000000000000000000000000000000000000000081526004016106f49190611a66565b60405180910390fd5b600360008373ffffffffffffffffffffffffffffffffffffffff1673ffffffffffffffffffffffffffffffffffffffff168152602001908152602001600020549050919050565b600061075233600654610d4f565b60405180606001604052808581526020018463ffffffff1681526020018363ffffffff1681525060076000600654815260200190815260200160002060008201518160000190805190602001906107aa929190611767565b5060208201518160010160006101000a81548163ffffffff021916908363ffffffff16021790555060408201518160010160046101000a81548163ffffffff021916908363ffffffff1602179055509050506006600081548092919061080f906120ff565b91905055506000309050809150509392505050565b60606001805461083390612068565b80601f016020809104026020016040519081016040528092919081815260200182805461085f90612068565b80156108ac5780601f10610881576101008083540402835291602001916108ac565b820191906000526020600020905b81548152906001019060200180831161088f57829003601f168201915b5050505050905090565b6108c86108c1610b1b565b8383610d6d565b5050565b6108d7848484610512565b6108e384848484610edc565b50505050565b60606108f482610a56565b5060006108ff611093565b9050600081511161091f576040518060200160405280600081525061094a565b80610929846110aa565b60405160200161093a929190612183565b6040516020818303038152906040525b915050919050565b60065481565b6000600560008473ffffffffffffffffffffffffffffffffffffffff1673ffffffffffffffffffffffffffffffffffffffff16815260200190815260200160002060008373ffffffffffffffffffffffffffffffffffffffff1673ffffffffffffffffffffffffffffffffffffffff16815260200190815260200160002060009054906101000a900460ff16905092915050565b60007f01ffc9a7000000000000000000000000000000000000000000000000000000007bffffffffffffffffffffffffffffffffffffffffffffffffffffffff1916827bffffffffffffffffffffffffffffffffffffffffffffffffffffffff1916149050919050565b600080610a6283611178565b9050600073ffffffffffffffffffffffffffffffffffffffff168173ffffffffffffffffffffffffffffffffffffffff1603610ad557826040517f7e273289000000000000000000000000000000000000000000000000000000008152600401610acc9190611bc4565b60405180910390fd5b80915050919050565b60006004600083815260200190815260200160002060009054906101000a900473ffffffffffffffffffffffffffffffffffffffff169050919050565b600033905090565b610b3083838360016111b5565b505050565b600080610b4184611178565b9050600073ffffffffffffffffffffffffffffffffffffffff168373ffffffffffffffffffffffffffffffffffffffff1614610b8357610b8281848661137a565b5b600073ffffffffffffffffffffffffffffffffffffffff168173ffffffffffffffffffffffffffffffffffffffff1614610c1457610bc56000856000806111b5565b6001600360008373ffffffffffffffffffffffffffffffffffffffff1673ffffffffffffffffffffffffffffffffffffffff168152602001908152602001600020600082825403925050819055505b600073ffffffffffffffffffffffffffffffffffffffff168573ffffffffffffffffffffffffffffffffffffffff1614610c97576001600360008773ffffffffffffffffffffffffffffffffffffffff1673ffffffffffffffffffffffffffffffffffffffff168152602001908152602001600020600082825401925050819055505b846002600086815260200190815260200160002060006101000a81548173ffffffffffffffffffffffffffffffffffffffff021916908373ffffffffffffffffffffffffffffffffffffffff160217905550838573ffffffffffffffffffffffffffffffffffffffff168273ffffffffffffffffffffffffffffffffffffffff167fddf252ad1be2c89b69c2b068fc378daa952ba7f163c4a11628f55a4df523b3ef60405160405180910390a4809150509392505050565b610d6982826040518060200160405280600081525061143e565b5050565b600073ffffffffffffffffffffffffffffffffffffffff168273ffffffffffffffffffffffffffffffffffffffff1603610dde57816040517f5b08ba18000000000000000000000000000000000000000000000000000000008152600401610dd59190611a66565b60405180910390fd5b80600560008573ffffffffffffffffffffffffffffffffffffffff1673ffffffffffffffffffffffffffffffffffffffff16815260200190815260200160002060008473ffffffffffffffffffffffffffffffffffffffff1673ffffffffffffffffffffffffffffffffffffffff16815260200190815260200160002060006101000a81548160ff0219169083151502179055508173ffffffffffffffffffffffffffffffffffffffff168373ffffffffffffffffffffffffffffffffffffffff167f17307eab39ab6107e8899845ad3d59bd9653f200f220920489ca2b5937696c3183604051610ecf91906118f5565b60405180910390a3505050565b60008373ffffffffffffffffffffffffffffffffffffffff163b111561108d578273ffffffffffffffffffffffffffffffffffffffff1663150b7a02610f20610b1b565b8685856040518563ffffffff1660e01b8152600401610f4294939291906121fc565b6020604051808303816000875af1925050508015610f7e57506040513d601f19601f82011682018060405250810190610f7b919061225d565b60015b611002573d8060008114610fae576040519150601f19603f3d011682016040523d82523d6000602084013e610fb3565b606091505b506000815103610ffa57836040517f64a0ae92000000000000000000000000000000000000000000000000000000008152600401610ff19190611a66565b60405180910390fd5b805181602001fd5b63150b7a0260e01b7bffffffffffffffffffffffffffffffffffffffffffffffffffffffff1916817bffffffffffffffffffffffffffffffffffffffffffffffffffffffff19161461108b57836040517f64a0ae920000000000000000000000000000000000000000000000000000000081526004016110829190611a66565b60405180910390fd5b505b50505050565b606060405180602001604052806000815250905090565b6060600060016110b98461145a565b01905060008167ffffffffffffffff8111156110d8576110d7611be4565b5b6040519080825280601f01601f19166020018201604052801561110a5781602001600182028036833780820191505090505b509050600082602001820190505b60011561116d578080600190039150507f3031323334353637383961626364656600000000000000000000000000000000600a86061a8153600a85816111615761116061228a565b5b04945060008503611118575b819350505050919050565b60006002600083815260200190815260200160002060009054906101000a900473ffffffffffffffffffffffffffffffffffffffff169050919050565b80806111ee5750600073ffffffffffffffffffffffffffffffffffffffff168273ffffffffffffffffffffffffffffffffffffffff1614155b156113225760006111fe84610a56565b9050600073ffffffffffffffffffffffffffffffffffffffff168373ffffffffffffffffffffffffffffffffffffffff161415801561126957508273ffffffffffffffffffffffffffffffffffffffff168173ffffffffffffffffffffffffffffffffffffffff1614155b801561127c575061127a8184610958565b155b156112be57826040517fa9fbf51f0000000000000000000000000000000000000000000000000000000081526004016112b59190611a66565b60405180910390fd5b811561132057838573ffffffffffffffffffffffffffffffffffffffff168273ffffffffffffffffffffffffffffffffffffffff167f8c5be1e5ebec7d5bd14f71427d1e84f3dd0314c0f7b2291e5b200ac8c7c3b92560405160405180910390a45b505b836004600085815260200190815260200160002060006101000a81548173ffffffffffffffffffffffffffffffffffffffff021916908373ffffffffffffffffffffffffffffffffffffffff16021790555050505050565b6113858383836115ad565b61143957600073ffffffffffffffffffffffffffffffffffffffff168373ffffffffffffffffffffffffffffffffffffffff16036113fa57806040517f7e2732890000000000000000000000000000000000000000000000000000000081526004016113f19190611bc4565b60405180910390fd5b81816040517f177e802f0000000000000000000000000000000000000000000000000000000081526004016114309291906122b9565b60405180910390fd5b505050565b611448838361166e565b6114556000848484610edc565b505050565b600080600090507a184f03e93ff9f4daa797ed6e38ed64bf6a1f01000000000000000083106114b8577a184f03e93ff9f4daa797ed6e38ed64bf6a1f01000000000000000083816114ae576114ad61228a565b5b0492506040810190505b6d04ee2d6d415b85acef810000000083106114f5576d04ee2d6d415b85acef810000000083816114eb576114ea61228a565b5b0492506020810190505b662386f26fc10000831061152457662386f26fc10000838161151a5761151961228a565b5b0492506010810190505b6305f5e100831061154d576305f5e10083816115435761154261228a565b5b0492506008810190505b61271083106115725761271083816115685761156761228a565b5b0492506004810190505b60648310611595576064838161158b5761158a61228a565b5b0492506002810190505b600a83106115a4576001810190505b80915050919050565b60008073ffffffffffffffffffffffffffffffffffffffff168373ffffffffffffffffffffffffffffffffffffffff161415801561166557508273ffffffffffffffffffffffffffffffffffffffff168473ffffffffffffffffffffffffffffffffffffffff16148061162657506116258484610958565b5b8061166457508273ffffffffffffffffffffffffffffffffffffffff1661164c83610ade565b73ffffffffffffffffffffffffffffffffffffffff16145b5b90509392505050565b600073ffffffffffffffffffffffffffffffffffffffff168273ffffffffffffffffffffffffffffffffffffffff16036116e05760006040517f64a0ae920000000000000000000000000000000000000000000000000000000081526004016116d79190611a66565b60405180910390fd5b60006116ee83836000610b35565b9050600073ffffffffffffffffffffffffffffffffffffffff168173ffffffffffffffffffffffffffffffffffffffff16146117625760006040517f73c6ac6e0000000000000000000000000000000000000000000000000000000081526004016117599190611a66565b60405180910390fd5b505050565b8280548282559060005260206000209081019282156117af579160200282015b828111156117ae57825182908161179e919061248e565b5091602001919060010190611787565b5b5090506117bc91906117c0565b5090565b5b808211156117e057600081816117d791906117e4565b506001016117c1565b5090565b5080546117f090612068565b6000825580601f106118025750611821565b601f0160209004906000526020600020908101906118209190611824565b5b50565b5b8082111561183d576000816000905550600101611825565b5090565b6000604051905090565b600080fd5b600080fd5b60007fffffffff0000000000000000000000000000000000000000000000000000000082169050919050565b61188a81611855565b811461189557600080fd5b50565b6000813590506118a781611881565b92915050565b6000602082840312156118c3576118c261184b565b5b60006118d184828501611898565b91505092915050565b60008115159050919050565b6118ef816118da565b82525050565b600060208201905061190a60008301846118e6565b92915050565b600081519050919050565b600082825260208201905092915050565b60005b8381101561194a57808201518184015260208101905061192f565b60008484015250505050565b6000601f19601f8301169050919050565b600061197282611910565b61197c818561191b565b935061198c81856020860161192c565b61199581611956565b840191505092915050565b600060208201905081810360008301526119ba8184611967565b905092915050565b6000819050919050565b6119d5816119c2565b81146119e057600080fd5b50565b6000813590506119f2816119cc565b92915050565b600060208284031215611a0e57611a0d61184b565b5b6000611a1c848285016119e3565b91505092915050565b600073ffffffffffffffffffffffffffffffffffffffff82169050919050565b6000611a5082611a25565b9050919050565b611a6081611a45565b82525050565b6000602082019050611a7b6000830184611a57565b92915050565b611a8a81611a45565b8114611a9557600080fd5b50565b600081359050611aa781611a81565b92915050565b60008060408385031215611ac457611ac361184b565b5b6000611ad285828601611a98565b9250506020611ae3858286016119e3565b9150509250929050565b600080600060608486031215611b0657611b0561184b565b5b6000611b1486828701611a98565b9350506020611b2586828701611a98565b9250506040611b36868287016119e3565b9150509250925092565b600063ffffffff82169050919050565b611b5981611b40565b82525050565b6000604082019050611b746000830185611b50565b611b816020830184611b50565b9392505050565b600060208284031215611b9e57611b9d61184b565b5b6000611bac84828501611a98565b91505092915050565b611bbe816119c2565b82525050565b6000602082019050611bd96000830184611bb5565b92915050565b600080fd5b7f4e487b7100000000000000000000000000000000000000000000000000000000600052604160045260246000fd5b611c1c82611956565b810181811067ffffffffffffffff82111715611c3b57611c3a611be4565b5b80604052505050565b6000611c4e611841565b9050611c5a8282611c13565b919050565b600067ffffffffffffffff821115611c7a57611c79611be4565b5b602082029050602081019050919050565b600080fd5b600080fd5b600067ffffffffffffffff821115611cb057611caf611be4565b5b611cb982611956565b9050602081019050919050565b82818337600083830152505050565b6000611ce8611ce384611c95565b611c44565b905082815260208101848484011115611d0457611d03611c90565b5b611d0f848285611cc6565b509392505050565b600082601f830112611d2c57611d2b611bdf565b5b8135611d3c848260208601611cd5565b91505092915050565b6000611d58611d5384611c5f565b611c44565b90508083825260208201905060208402830185811115611d7b57611d7a611c8b565b5b835b81811015611dc257803567ffffffffffffffff811115611da057611d9f611bdf565b5b808601611dad8982611d17565b85526020850194505050602081019050611d7d565b5050509392505050565b600082601f830112611de157611de0611bdf565b5b8135611df1848260208601611d45565b91505092915050565b600080600060608486031215611e1357611e1261184b565b5b600084013567ffffffffffffffff811115611e3157611e30611850565b5b611e3d86828701611dcc565b9350506020611e4e868287016119e3565b9250506040611e5f868287016119e3565b9150509250925092565b611e72816118da565b8114611e7d57600080fd5b50565b600081359050611e8f81611e69565b92915050565b60008060408385031215611eac57611eab61184b565b5b6000611eba85828601611a98565b9250506020611ecb85828601611e80565b9150509250929050565b600067ffffffffffffffff821115611ef057611eef611be4565b5b611ef982611956565b9050602081019050919050565b6000611f19611f1484611ed5565b611c44565b905082815260208101848484011115611f3557611f34611c90565b5b611f40848285611cc6565b509392505050565b600082601f830112611f5d57611f5c611bdf565b5b8135611f6d848260208601611f06565b91505092915050565b60008060008060808587031215611f9057611f8f61184b565b5b6000611f9e87828801611a98565b9450506020611faf87828801611a98565b9350506040611fc0878288016119e3565b925050606085013567ffffffffffffffff811115611fe157611fe0611850565b5b611fed87828801611f48565b91505092959194509250565b600080604083850312156120105761200f61184b565b5b600061201e85828601611a98565b925050602061202f85828601611a98565b9150509250929050565b7f4e487b7100000000000000000000000000000000000000000000000000000000600052602260045260246000fd5b6000600282049050600182168061208057607f821691505b60208210810361209357612092612039565b5b50919050565b60006060820190506120ae6000830186611a57565b6120bb6020830185611bb5565b6120c86040830184611a57565b949350505050565b7f4e487b7100000000000000000000000000000000000000000000000000000000600052601160045260246000fd5b600061210a826119c2565b91507fffffffffffffffffffffffffffffffffffffffffffffffffffffffffffffffff820361213c5761213b6120d0565b5b600182019050919050565b600081905092915050565b600061215d82611910565b6121678185612147565b935061217781856020860161192c565b80840191505092915050565b600061218f8285612152565b915061219b8284612152565b91508190509392505050565b600081519050919050565b600082825260208201905092915050565b60006121ce826121a7565b6121d881856121b2565b93506121e881856020860161192c565b6121f181611956565b840191505092915050565b60006080820190506122116000830187611a57565b61221e6020830186611a57565b61222b6040830185611bb5565b818103606083015261223d81846121c3565b905095945050505050565b60008151905061225781611881565b92915050565b6000602082840312156122735761227261184b565b5b600061228184828501612248565b91505092915050565b7f4e487b7100000000000000000000000000000000000000000000000000000000600052601260045260246000fd5b60006040820190506122ce6000830185611a57565b6122db6020830184611bb5565b9392505050565b60008190508160005260206000209050919050565b60006020601f8301049050919050565b600082821b905092915050565b6000600883026123447fffffffffffffffffffffffffffffffffffffffffffffffffffffffffffffffff82612307565b61234e8683612307565b95508019841693508086168417925050509392505050565b6000819050919050565b600061238b612386612381846119c2565b612366565b6119c2565b9050919050565b6000819050919050565b6123a583612370565b6123b96123b182612392565b848454612314565b825550505050565b600090565b6123ce6123c1565b6123d981848461239c565b505050565b5b818110156123fd576123f26000826123c6565b6001810190506123df565b5050565b601f82111561244257612413816122e2565b61241c846122f7565b8101602085101561242b578190505b61243f612437856122f7565b8301826123de565b50505b505050565b600082821c905092915050565b600061246560001984600802612447565b1980831691505092915050565b600061247e8383612454565b9150826002028217905092915050565b61249782611910565b67ffffffffffffffff8111156124b0576124af611be4565b5b6124ba8254612068565b6124c5828285612401565b600060209050601f8311600181146124f857600084156124e6578287015190505b6124f08582612472565b865550612558565b601f198416612506866122e2565b60005b8281101561252e57848901518255600182019150602085019450602081019050612509565b8683101561254b5784890151612547601f891682612454565b8355505b6001600288020188555050505b50505050505056fea2646970667358221220386f60015f0b299820a30154f358969d68bf1e4714a72e591f0d94ee5f9be03964736f6c63430008180033",
  "linkReferences": {},
  "deployedLinkReferences": {}
}