{
  "_format": "hh-sol-artifact-1",
  "contractName": "AuditToken",
  "sourceName": "contracts/AuditToken.sol",
  "abi": [
    {
      "inputs": [],
      "stateMutability": "nonpayable",
      "type": "constructor"
    },
    {
      "inputs": [
        {
          "internalType": "address",
          "name": "sender",
          "type": "address"
        },
        {
          "internalType": "uint256",
          "name": "tokenId",
          "type": "uint256"
        },
        {
          "internalType": "address",
          "name": "owner",
          "type": "address"
        }
      ],
      "name": "ERC721IncorrectOwner",
      "type": "error"
    },
    {
      "inputs": [
        {
          "internalType": "address",
          "name": "operator",
          "type": "address"
        },
        {
          "internalType": "uint256",
          "name": "tokenId",
          "type": "uint256"
        }
      ],
      "name": "ERC721InsufficientApproval",
      "type": "error"
    },
    {
      "inputs": [
        {
          "internalType": "address",
          "name": "approver",
          "type": "address"
        }
      ],
      "name": "ERC721InvalidApprover",
      "type": "error"
    },
    {
      "inputs": [
        {
          "internalType": "address",
          "name": "operator",
          "type": "address"
        }
      ],
      "name": "ERC721InvalidOperator",
      "type": "error"
    },
    {
      "inputs": [
        {
          "internalType": "address",
          "name": "owner",
          "type": "address"
        }
      ],
      "name": "ERC721InvalidOwner",
      "type": "error"
    },
    {
      "inputs": [
        {
          "internalType": "address",
          "name": "receiver",
          "type": "address"
        }
      ],
      "name": "ERC721InvalidReceiver",
      "type": "error"
    },
    {
      "inputs": [
        {
          "internalType": "address",
          "name": "sender",
          "type": "address"
        }
      ],
      "name": "ERC721InvalidSender",
      "type": "error"
    },
    {
      "inputs": [
        {
          "internalType": "uint256",
          "name": "tokenId",
          "type": "uint256"
        }
      ],
      "name": "ERC721NonexistentToken",
      "type": "error"
    },
    {
      "anonymous": false,
      "inputs": [
        {
          "indexed": true,
          "internalType": "address",
          "name": "owner",
          "type": "address"
        },
        {
          "indexed": true,
          "internalType": "address",
          "name": "approved",
          "type": "address"
        },
        {
          "indexed": true,
          "internalType": "uint256",
          "name": "tokenId",
          "type": "uint256"
        }
      ],
      "name": "Approval",
      "type": "event"
    },
    {
      "anonymous": false,
      "inputs": [
        {
          "indexed": true,
          "internalType": "address",
          "name": "owner",
          "type": "address"
        },
        {
          "indexed": true,
          "internalType": "address",
          "name": "operator",
          "type": "address"
        },
        {
          "indexed": false,
          "internalType": "bool",
          "name": "approved",
          "type": "bool"
        }
      ],
      "name": "ApprovalForAll",
      "type": "event"
    },
    {
      "anonymous": false,
      "inputs": [
        {
          "indexed": true,
          "internalType": "address",
          "name": "from",
          "type": "address"
        },
        {
          "indexed": true,
          "internalType": "address",
          "name": "to",
          "type": "address"
        },
        {
          "indexed": true,
          "internalType": "uint256",
          "name": "tokenId",
          "type": "uint256"
        }
      ],
      "name": "Transfer",
      "type": "event"
    },
    {
      "inputs": [
        {
          "internalType": "address",
          "name": "to",
          "type": "address"
        },
        {
          "internalType": "uint256",
          "name": "tokenId",
          "type": "uint256"
        }
      ],
      "name": "approve",
      "outputs": [],
      "stateMutability": "nonpayable",
      "type": "function"
    },
    {
      "inputs": [
        {
          "internalType": "address",
          "name": "owner",
          "type": "address"
        }
      ],
      "name": "balanceOf",
      "outputs": [
        {
          "internalType": "uint256",
          "name": "",
          "type": "uint256"
        }
      ],
      "stateMutability": "view",
      "type": "function"
    },
    {
      "inputs": [
        {
          "internalType": "uint256",
          "name": "tokenId",
          "type": "uint256"
        }
      ],
      "name": "getApproved",
      "outputs": [
        {
          "internalType": "address",
          "name": "",
          "type": "address"
        }
      ],
      "stateMutability": "view",
      "type": "function"
    },
    {
      "inputs": [
        {
          "internalType": "address",
          "name": "owner",
          "type": "address"
        },
        {
          "internalType": "address",
          "name": "operator",
          "type": "address"
        }
      ],
      "name": "isApprovedForAll",
      "outputs": [
        {
          "internalType": "bool",
          "name": "",
          "type": "bool"
        }
      ],
      "stateMutability": "view",
      "type": "function"
    },
    {
      "inputs": [
        {
          "internalType": "string[]",
          "name": "_vulnerabilities",
          "type": "string[]"
        },
        {
          "internalType": "uint256",
          "name": "_securityScore",
          "type": "uint256"
        },
        {
          "internalType": "uint256",
          "name": "_gasScore",
          "type": "uint256"
        }
      ],
      "name": "mint",
      "outputs": [
        {
          "internalType": "address",
          "name": "",
          "type": "address"
        }
      ],
      "stateMutability": "nonpayable",
      "type": "function"
    },
    {
      "inputs": [],
      "name": "name",
      "outputs": [
        {
          "internalType": "string",
          "name": "",
          "type": "string"
        }
      ],
      "stateMutability": "view",
      "type": "function"
    },
    {
      "inputs": [
        {
          "internalType": "uint256",
          "name": "tokenId",
          "type": "uint256"
        }
      ],
      "name": "ownerOf",
      "outputs": [
        {
          "internalType": "address",
          "name": "",
          "type": "address"
        }
      ],
      "stateMutability": "view",
      "type": "function"
    },
    {
      "inputs": [
        {
          "internalType": "address",
          "name": "from",
          "type": "address"
        },
        {
          "internalType": "address",
          "name": "to",
          "type": "address"
        },
        {
          "internalType": "uint256",
          "name": "tokenId",
          "type": "uint256"
        }
      ],
      "name": "safeTransferFrom",
      "outputs": [],
      "stateMutability": "nonpayable",
      "type": "function"
    },
    {
      "inputs": [
        {
          "internalType": "address",
          "name": "from",
          "type": "address"
        },
        {
          "internalType": "address",
          "name": "to",
          "type": "address"
        },
        {
          "internalType": "uint256",
          "name": "tokenId",
          "type": "uint256"
        },
        {
          "internalType": "bytes",
          "name": "data",
          "type": "bytes"
        }
      ],
      "name": "safeTransferFrom",
      "outputs": [],
      "stateMutability": "nonpayable",
      "type": "function"
    },
    {
      "inputs": [
        {
          "internalType": "address",
          "name": "operator",
          "type": "address"
        },
        {
          "internalType": "bool",
          "name": "approved",
          "type": "bool"
        }
      ],
      "name": "setApprovalForAll",
      "outputs": [],
      "stateMutability": "nonpayable",
      "type": "function"
    },
    {
      "inputs": [
        {
          "internalType": "bytes4",
          "name": "interfaceId",
          "type": "bytes4"
        }
      ],
      "name": "supportsInterface",
      "outputs": [
        {
          "internalType": "bool",
          "name": "",
          "type": "bool"
        }
      ],
      "stateMutability": "view",
      "type": "function"
    },
    {
      "inputs": [],
      "name": "symbol",
      "outputs": [
        {
          "internalType": "string",
          "name": "",
          "type": "string"
        }
      ],
      "stateMutability": "view",
      "type": "function"
    },
    {
      "inputs": [],
      "name": "tokenCounter",
      "outputs": [
        {
          "internalType": "uint256",
          "name": "",
          "type": "uint256"
        }
      ],
      "stateMutability": "view",
      "type": "function"
    },
    {
      "inputs": [
        {
          "internalType": "uint256",
          "name": "",
          "type": "uint256"
        }
      ],
      "name": "tokenMetadata",
      "outputs": [
        {
          "internalType": "uint32",
          "name": "securityScore",
          "type": "uint32"
        },
        {
          "internalType": "uint32",
          "name": "gasScore",
          "type": "uint32"
        },
        {
          "internalType": "uint32",
          "name": "timestamp",
          "type": "uint32"
        }
      ],
      "stateMutability": "view",
      "type": "function"
    },
    {
      "inputs": [
        {
          "internalType": "uint256",
          "name": "tokenId",
          "type": "uint256"
        }
      ],
      "name": "tokenURI",
      "outputs": [
        {
          "internalType": "string",
          "name": "",
          "type": "string"
        }
      ],
      "stateMutability": "view",
      "type": "function"
    },
    {
      "inputs": [
        {
          "internalType": "address",
          "name": "from",
          "type": "address"
        },
        {
          "internalType": "address",
          "name": "to",
          "type": "address"
        },
        {
          "internalType": "uint256",
          "name": "tokenId",
          "type": "uint256"
        }
      ],
      "name": "transferFrom",
      "outputs": [],
      "stateMutability": "nonpayable",
      "type": "function"
    }
  ],
  "bytecode": "0x60806040523480156200001157600080fd5b506040518060400160405280601181526020017f41756469742050726f6f6620546f6b656e0000000000000000000000000000008152506040518060400160405280600381526020017f415054000000000000000000000000000000000000000000000000000000000081525081600090816200008f91906200032c565b508060019081620000a191906200032c565b505050600060068190555062000413565b600081519050919050565b7f4e487b7100000000000000000000000000000000000000000000000000000000600052604160045260246000fd5b7f4e487b7100000000000000000000000000000000000000000000000000000000600052602260045260246000fd5b600060028204905060018216806200013457607f821691505b6020821081036200014a5762000149620000ec565b5b50919050565b60008190508160005260206000209050919050565b60006020601f8301049050919050565b600082821b905092915050565b600060088302620001b47fffffffffffffffffffffffffffffffffffffffffffffffffffffffffffffffff8262000175565b620001c0868362000175565b95508019841693508086168417925050509392505050565b6000819050919050565b6000819050919050565b60006200020d620002076200020184620001d8565b620001e2565b620001d8565b9050919050565b6000819050919050565b6200022983620001ec565b62000241620002388262000214565b84845462000182565b825550505050565b600090565b6200025862000249565b620002658184846200021e565b505050565b5b818110156200028d57620002816000826200024e565b6001810190506200026b565b5050565b601f821115620002dc57620002a68162000150565b620002b18462000165565b81016020851015620002c1578190505b620002d9620002d08562000165565b8301826200026a565b50505b505050565b600082821c905092915050565b60006200030160001984600802620002e1565b1980831691505092915050565b60006200031c8383620002ee565b9150826002028217905092915050565b6200033782620000b2565b67ffffffffffffffff811115620003535762000352620000bd565b5b6200035f82546200011b565b6200036c82828562000291565b600060209050601f831160018114620003a457600084156200038f578287015190505b6200039b85826200030e565b8655506200040b565b601f198416620003b48662000150565b60005b82811015620003de57848901518255600182019150602085019450602081019050620003b7565b86831015620003fe5784890151620003fa601f891682620002ee565b8355505b6001600288020188555050505b505050505050565b6125ee80620004236000396000f3fe608060405234801561001057600080fd5b50600436106101005760003560e01c806370a0823111610097578063b88d4fde11610066578063b88d4fde146102d3578063c87b56dd146102ef578063d082e3811461031f578063e985e9c51461033d57610100565b806370a0823114610239578063875da89c1461026957806395d89b4114610299578063a22cb465146102b757610100565b806323b872dd116100d357806323b872dd1461019f57806342842e0e146101bb5780636352211e146101d75780636914db601461020757610100565b806301ffc9a71461010557806306fdde0314610135578063081812fc14610153578063095ea7b314610183575b600080fd5b61011f600480360381019061011a91906118f7565b61036d565b60405161012c919061193f565b60405180910390f35b61013d61044f565b60405161014a91906119ea565b60405180910390f35b61016d60048036038101906101689190611a42565b6104e1565b60405161017a9190611ab0565b60405180910390f35b61019d60048036038101906101989190611af7565b6104fd565b005b6101b960048036038101906101b49190611b37565b610513565b005b6101d560048036038101906101d09190611b37565b610615565b005b6101f160048036038101906101ec9190611a42565b610635565b6040516101fe9190611ab0565b60405180910390f35b610221600480360381019061021c9190611a42565b610647565b60405161023093929190611ba9565b60405180910390f35b610253600480360381019061024e9190611be0565b6106a1565b6040516102609190611c1c565b60405180910390f35b610283600480360381019061027e9190611e52565b61075b565b6040516102909190611ab0565b60405180910390f35b6102a161086e565b6040516102ae91906119ea565b60405180910390f35b6102d160048036038101906102cc9190611eed565b610900565b005b6102ed60048036038101906102e89190611fce565b610916565b005b61030960048036038101906103049190611a42565b610933565b60405161031691906119ea565b60405180910390f35b61032761099c565b6040516103349190611c1c565b60405180910390f35b61035760048036038101906103529190612051565b6109a2565b604051610364919061193f565b60405180910390f35b60007f80ac58cd000000000000000000000000000000000000000000000000000000007bffffffffffffffffffffffffffffffffffffffffffffffffffffffff1916827bffffffffffffffffffffffffffffffffffffffffffffffffffffffff1916148061043857507f5b5e139f000000000000000000000000000000000000000000000000000000007bffffffffffffffffffffffffffffffffffffffffffffffffffffffff1916827bffffffffffffffffffffffffffffffffffffffffffffffffffffffff1916145b80610448575061044782610a36565b5b9050919050565b60606000805461045e906120c0565b80601f016020809104026020016040519081016040528092919081815260200182805461048a906120c0565b80156104d75780601f106104ac576101008083540402835291602001916104d7565b820191906000526020600020905b8154815290600101906020018083116104ba57829003601f168201915b5050505050905090565b60006104ec82610aa0565b506104f682610b28565b9050919050565b61050f828261050a610b65565b610b6d565b5050565b600073ffffffffffffffffffffffffffffffffffffffff168273ffffffffffffffffffffffffffffffffffffffff16036105855760006040517f64a0ae9200000000000000000000000000000000000000000000000000000000815260040161057c9190611ab0565b60405180910390fd5b60006105998383610594610b65565b610b7f565b90508373ffffffffffffffffffffffffffffffffffffffff168173ffffffffffffffffffffffffffffffffffffffff161461060f578382826040517f64283d7b000000000000000000000000000000000000000000000000000000008152600401610606939291906120f1565b60405180910390fd5b50505050565b61063083838360405180602001604052806000815250610916565b505050565b600061064082610aa0565b9050919050565b60076020528060005260406000206000915090508060010160009054906101000a900463ffffffff16908060010160049054906101000a900463ffffffff16908060010160089054906101000a900463ffffffff16905083565b60008073ffffffffffffffffffffffffffffffffffffffff168273ffffffffffffffffffffffffffffffffffffffff16036107145760006040517f89c62b6400000000000000000000000000000000000000000000000000000000815260040161070b9190611ab0565b60405180910390fd5b600360008373ffffffffffffffffffffffffffffffffffffffff1673ffffffffffffffffffffffffffffffffffffffff168152602001908152602001600020549050919050565b600061076933600654610d99565b60405180608001604052808581526020018463ffffffff1681526020018363ffffffff1681526020014263ffffffff1681525060076000600654815260200190815260200160002060008201518160000190805190602001906107cd9291906117b1565b5060208201518160010160006101000a81548163ffffffff021916908363ffffffff16021790555060408201518160010160046101000a81548163ffffffff021916908363ffffffff16021790555060608201518160010160086101000a81548163ffffffff021916908363ffffffff1602179055509050506006600081548092919061085990612157565b91905055506000309050809150509392505050565b60606001805461087d906120c0565b80601f01602080910402602001604051908101604052809291908181526020018280546108a9906120c0565b80156108f65780601f106108cb576101008083540402835291602001916108f6565b820191906000526020600020905b8154815290600101906020018083116108d957829003601f168201915b5050505050905090565b61091261090b610b65565b8383610db7565b5050565b610921848484610513565b61092d84848484610f26565b50505050565b606061093e82610aa0565b5060006109496110dd565b905060008151116109695760405180602001604052806000815250610994565b80610973846110f4565b6040516020016109849291906121db565b6040516020818303038152906040525b915050919050565b60065481565b6000600560008473ffffffffffffffffffffffffffffffffffffffff1673ffffffffffffffffffffffffffffffffffffffff16815260200190815260200160002060008373ffffffffffffffffffffffffffffffffffffffff1673ffffffffffffffffffffffffffffffffffffffff16815260200190815260200160002060009054906101000a900460ff16905092915050565b60007f01ffc9a7000000000000000000000000000000000000000000000000000000007bffffffffffffffffffffffffffffffffffffffffffffffffffffffff1916827bffffffffffffffffffffffffffffffffffffffffffffffffffffffff1916149050919050565b600080610aac836111c2565b9050600073ffffffffffffffffffffffffffffffffffffffff168173ffffffffffffffffffffffffffffffffffffffff1603610b1f57826040517f7e273289000000000000000000000000000000000000000000000000000000008152600401610b169190611c1c565b60405180910390fd5b80915050919050565b60006004600083815260200190815260200160002060009054906101000a900473ffffffffffffffffffffffffffffffffffffffff169050919050565b600033905090565b610b7a83838360016111ff565b505050565b600080610b8b846111c2565b9050600073ffffffffffffffffffffffffffffffffffffffff168373ffffffffffffffffffffffffffffffffffffffff1614610bcd57610bcc8184866113c4565b5b600073ffffffffffffffffffffffffffffffffffffffff168173ffffffffffffffffffffffffffffffffffffffff1614610c5e57610c0f6000856000806111ff565b6001600360008373ffffffffffffffffffffffffffffffffffffffff1673ffffffffffffffffffffffffffffffffffffffff168152602001908152602001600020600082825403925050819055505b600073ffffffffffffffffffffffffffffffffffffffff168573ffffffffffffffffffffffffffffffffffffffff1614610ce1576001600360008773ffffffffffffffffffffffffffffffffffffffff1673ffffffffffffffffffffffffffffffffffffffff168152602001908152602001600020600082825401925050819055505b846002600086815260200190815260200160002060006101000a81548173ffffffffffffffffffffffffffffffffffffffff021916908373ffffffffffffffffffffffffffffffffffffffff160217905550838573ffffffffffffffffffffffffffffffffffffffff168273ffffffffffffffffffffffffffffffffffffffff167fddf252ad1be2c89b69c2b068fc378daa952ba7f163c4a11628f55a4df523b3ef60405160405180910390a4809150509392505050565b610db3828260405180602001604052806000815250611488565b5050565b600073ffffffffffffffffffffffffffffffffffffffff168273ffffffffffffffffffffffffffffffffffffffff1603610e2857816040517f5b08ba18000000000000000000000000000000000000000000000000000000008152600401610e1f9190611ab0565b60405180910390fd5b80600560008573ffffffffffffffffffffffffffffffffffffffff1673ffffffffffffffffffffffffffffffffffffffff16815260200190815260200160002060008473ffffffffffffffffffffffffffffffffffffffff1673ffffffffffffffffffffffffffffffffffffffff16815260200190815260200160002060006101000a81548160ff0219169083151502179055508173ffffffffffffffffffffffffffffffffffffffff168373ffffffffffffffffffffffffffffffffffffffff167f17307eab39ab6107e8899845ad3d59bd9653f200f220920489ca2b5937696c3183604051610f19919061193f565b60405180910390a3505050565b60008373ffffffffffffffffffffffffffffffffffffffff163b11156110d7578273ffffffffffffffffffffffffffffffffffffffff1663150b7a02610f6a610b65565b8685856040518563ffffffff1660e01b8152600401610f8c9493929190612254565b6020604051808303816000875af1925050508015610fc857506040513d601f19601f82011682018060405250810190610fc591906122b5565b60015b61104c573d8060008114610ff8576040519150601f19603f3d011682016040523d82523d6000602084013e610ffd565b606091505b50600081510361104457836040517f64a0ae9200000000000000000000000000000000000000000000000000000000815260040161103b9190611ab0565b60405180910390fd5b805181602001fd5b63150b7a0260e01b7bffffffffffffffffffffffffffffffffffffffffffffffffffffffff1916817bffffffffffffffffffffffffffffffffffffffffffffffffffffffff1916146110d557836040517f64a0ae920000000000000000000000000000000000000000000000000000000081526004016110cc9190611ab0565b60405180910390fd5b505b50505050565b606060405180602001604052806000815250905090565b606060006001611103846114a4565b01905060008167ffffffffffffffff81111561112257611121611c3c565b5b6040519080825280601f01601f1916602001820160405280156111545781602001600182028036833780820191505090505b509050600082602001820190505b6001156111b7578080600190039150507f3031323334353637383961626364656600000000000000000000000000000000600a86061a8153600a85816111ab576111aa6122e2565b5b04945060008503611162575b819350505050919050565b60006002600083815260200190815260200160002060009054906101000a900473ffffffffffffffffffffffffffffffffffffffff169050919050565b80806112385750600073ffffffffffffffffffffffffffffffffffffffff168273ffffffffffffffffffffffffffffffffffffffff1614155b1561136c57600061124884610aa0565b9050600073ffffffffffffffffffffffffffffffffffffffff168373ffffffffffffffffffffffffffffffffffffffff16141580156112b357508273ffffffffffffffffffffffffffffffffffffffff168173ffffffffffffffffffffffffffffffffffffffff1614155b80156112c657506112c481846109a2565b155b1561130857826040517fa9fbf51f0000000000000000000000000000000000000000000000000000000081526004016112ff9190611ab0565b60405180910390fd5b811561136a57838573ffffffffffffffffffffffffffffffffffffffff168273ffffffffffffffffffffffffffffffffffffffff167f8c5be1e5ebec7d5bd14f71427d1e84f3dd0314c0f7b2291e5b200ac8c7c3b92560405160405180910390a45b505b836004600085815260200190815260200160002060006101000a81548173ffffffffffffffffffffffffffffffffffffffff021916908373ffffffffffffffffffffffffffffffffffffffff16021790555050505050565b6113cf8383836115f7565b61148357600073ffffffffffffffffffffffffffffffffffffffff168373ffffffffffffffffffffffffffffffffffffffff160361144457806040517f7e27328900000000000000000000000000000000000000000000000000000000815260040161143b9190611c1c565b60405180910390fd5b81816040517f177e802f00000000000000000000000000000000000000000000000000000000815260040161147a929190612311565b60405180910390fd5b505050565b61149283836116b8565b61149f6000848484610f26565b505050565b600080600090507a184f03e93ff9f4daa797ed6e38ed64bf6a1f0100000000000000008310611502577a184f03e93ff9f4daa797ed6e38ed64bf6a1f01000000000000000083816114f8576114f76122e2565b5b0492506040810190505b6d04ee2d6d415b85acef8100000000831061153f576d04ee2d6d415b85acef81000000008381611535576115346122e2565b5b0492506020810190505b662386f26fc10000831061156e57662386f26fc100008381611564576115636122e2565b5b0492506010810190505b6305f5e1008310611597576305f5e100838161158d5761158c6122e2565b5b0492506008810190505b61271083106115bc5761271083816115b2576115b16122e2565b5b0492506004810190505b606483106115df57606483816115d5576115d46122e2565b5b0492506002810190505b600a83106115ee576001810190505b80915050919050565b60008073ffffffffffffffffffffffffffffffffffffffff168373ffffffffffffffffffffffffffffffffffffffff16141580156116af57508273ffffffffffffffffffffffffffffffffffffffff168473ffffffffffffffffffffffffffffffffffffffff161480611670575061166f84846109a2565b5b806116ae57508273ffffffffffffffffffffffffffffffffffffffff1661169683610b28565b73ffffffffffffffffffffffffffffffffffffffff16145b5b90509392505050565b600073ffffffffffffffffffffffffffffffffffffffff168273ffffffffffffffffffffffffffffffffffffffff160361172a5760006040517f64a0ae920000000000000000000000000000000000000000000000000000000081526004016117219190611ab0565b60405180910390fd5b600061173883836000610b7f565b9050600073ffffffffffffffffffffffffffffffffffffffff168173ffffffffffffffffffffffffffffffffffffffff16146117ac5760006040517f73c6ac6e0000000000000000000000000000000000000000000000000000000081526004016117a39190611ab0565b60405180910390fd5b505050565b8280548282559060005260206000209081019282156117f9579160200282015b828111156117f85782518290816117e891906124e6565b50916020019190600101906117d1565b5b509050611806919061180a565b5090565b5b8082111561182a5760008181611821919061182e565b5060010161180b565b5090565b50805461183a906120c0565b6000825580601f1061184c575061186b565b601f01602090049060005260206000209081019061186a919061186e565b5b50565b5b8082111561188757600081600090555060010161186f565b5090565b6000604051905090565b600080fd5b600080fd5b60007fffffffff0000000000000000000000000000000000000000000000000000000082169050919050565b6118d48161189f565b81146118df57600080fd5b50565b6000813590506118f1816118cb565b92915050565b60006020828403121561190d5761190c611895565b5b600061191b848285016118e2565b91505092915050565b60008115159050919050565b61193981611924565b82525050565b60006020820190506119546000830184611930565b92915050565b600081519050919050565b600082825260208201905092915050565b60005b83811015611994578082015181840152602081019050611979565b60008484015250505050565b6000601f19601f8301169050919050565b60006119bc8261195a565b6119c68185611965565b93506119d6818560208601611976565b6119df816119a0565b840191505092915050565b60006020820190508181036000830152611a0481846119b1565b905092915050565b6000819050919050565b611a1f81611a0c565b8114611a2a57600080fd5b50565b600081359050611a3c81611a16565b92915050565b600060208284031215611a5857611a57611895565b5b6000611a6684828501611a2d565b91505092915050565b600073ffffffffffffffffffffffffffffffffffffffff82169050919050565b6000611a9a82611a6f565b9050919050565b611aaa81611a8f565b82525050565b6000602082019050611ac56000830184611aa1565b92915050565b611ad481611a8f565b8114611adf57600080fd5b50565b600081359050611af181611acb565b92915050565b60008060408385031215611b0e57611b0d611895565b5b6000611b1c85828601611ae2565b9250506020611b2d85828601611a2d565b9150509250929050565b600080600060608486031215611b5057611b4f611895565b5b6000611b5e86828701611ae2565b9350506020611b6f86828701611ae2565b9250506040611b8086828701611a2d565b9150509250925092565b600063ffffffff82169050919050565b611ba381611b8a565b82525050565b6000606082019050611bbe6000830186611b9a565b611bcb6020830185611b9a565b611bd86040830184611b9a565b949350505050565b600060208284031215611bf657611bf5611895565b5b6000611c0484828501611ae2565b91505092915050565b611c1681611a0c565b82525050565b6000602082019050611c316000830184611c0d565b92915050565b600080fd5b7f4e487b7100000000000000000000000000000000000000000000000000000000600052604160045260246000fd5b611c74826119a0565b810181811067ffffffffffffffff82111715611c9357611c92611c3c565b5b80604052505050565b6000611ca661188b565b9050611cb28282611c6b565b919050565b600067ffffffffffffffff821115611cd257611cd1611c3c565b5b602082029050602081019050919050565b600080fd5b600080fd5b600067ffffffffffffffff821115611d0857611d07611c3c565b5b611d11826119a0565b9050602081019050919050565b82818337600083830152505050565b6000611d40611d3b84611ced565b611c9c565b905082815260208101848484011115611d5c57611d5b611ce8565b5b611d67848285611d1e565b509392505050565b600082601f830112611d8457611d83611c37565b5b8135611d94848260208601611d2d565b91505092915050565b6000611db0611dab84611cb7565b611c9c565b90508083825260208201905060208402830185811115611dd357611dd2611ce3565b5b835b81811015611e1a57803567ffffffffffffffff811115611df857611df7611c37565b5b808601611e058982611d6f565b85526020850194505050602081019050611dd5565b5050509392505050565b600082601f830112611e3957611e38611c37565b5b8135611e49848260208601611d9d565b91505092915050565b600080600060608486031215611e6b57611e6a611895565b5b600084013567ffffffffffffffff811115611e8957611e8861189a565b5b611e9586828701611e24565b9350506020611ea686828701611a2d565b9250506040611eb786828701611a2d565b9150509250925092565b611eca81611924565b8114611ed557600080fd5b50565b600081359050611ee781611ec1565b92915050565b60008060408385031215611f0457611f03611895565b5b6000611f1285828601611ae2565b9250506020611f2385828601611ed8565b9150509250929050565b600067ffffffffffffffff821115611f4857611f47611c3c565b5b611f51826119a0565b9050602081019050919050565b6000611f71611f6c84611f2d565b611c9c565b905082815260208101848484011115611f8d57611f8c611ce8565b5b611f98848285611d1e565b509392505050565b600082601f830112611fb557611fb4611c37565b5b8135611fc5848260208601611f5e565b91505092915050565b60008060008060808587031215611fe857611fe7611895565b5b6000611ff687828801611ae2565b945050602061200787828801611ae2565b935050604061201887828801611a2d565b925050606085013567ffffffffffffffff8111156120395761203861189a565b5b61204587828801611fa0565b91505092959194509250565b6000806040838503121561206857612067611895565b5b600061207685828601611ae2565b925050602061208785828601611ae2565b9150509250929050565b7f4e487b7100000000000000000000000000000000000000000000000000000000600052602260045260246000fd5b600060028204905060018216806120d857607f821691505b6020821081036120eb576120ea612091565b5b50919050565b60006060820190506121066000830186611aa1565b6121136020830185611c0d565b6121206040830184611aa1565b949350505050565b7f4e487b7100000000000000000000000000000000000000000000000000000000600052601160045260246000fd5b600061216282611a0c565b91507fffffffffffffffffffffffffffffffffffffffffffffffffffffffffffffffff820361219457612193612128565b5b600182019050919050565b600081905092915050565b60006121b58261195a565b6121bf818561219f565b93506121cf818560208601611976565b80840191505092915050565b60006121e782856121aa565b91506121f382846121aa565b91508190509392505050565b600081519050919050565b600082825260208201905092915050565b6000612226826121ff565b612230818561220a565b9350612240818560208601611976565b612249816119a0565b840191505092915050565b60006080820190506122696000830187611aa1565b6122766020830186611aa1565b6122836040830185611c0d565b8181036060830152612295818461221b565b905095945050505050565b6000815190506122af816118cb565b92915050565b6000602082840312156122cb576122ca611895565b5b60006122d9848285016122a0565b91505092915050565b7f4e487b7100000000000000000000000000000000000000000000000000000000600052601260045260246000fd5b60006040820190506123266000830185611aa1565b6123336020830184611c0d565b9392505050565b60008190508160005260206000209050919050565b60006020601f8301049050919050565b600082821b905092915050565b60006008830261239c7fffffffffffffffffffffffffffffffffffffffffffffffffffffffffffffffff8261235f565b6123a6868361235f565b95508019841693508086168417925050509392505050565b6000819050919050565b60006123e36123de6123d984611a0c565b6123be565b611a0c565b9050919050565b6000819050919050565b6123fd836123c8565b612411612409826123ea565b84845461236c565b825550505050565b600090565b612426612419565b6124318184846123f4565b505050565b5b818110156124555761244a60008261241e565b600181019050612437565b5050565b601f82111561249a5761246b8161233a565b6124748461234f565b81016020851015612483578190505b61249761248f8561234f565b830182612436565b50505b505050565b600082821c905092915050565b60006124bd6000198460080261249f565b1980831691505092915050565b60006124d683836124ac565b9150826002028217905092915050565b6124ef8261195a565b67ffffffffffffffff81111561250857612507611c3c565b5b61251282546120c0565b61251d828285612459565b600060209050601f831160018114612550576000841561253e578287015190505b61254885826124ca565b8655506125b0565b601f19841661255e8661233a565b60005b8281101561258657848901518255600182019150602085019450602081019050612561565b868310156125a3578489015161259f601f8916826124ac565b8355505b6001600288020188555050505b50505050505056fea2646970667358221220eec448208e15729e3509d67ba6bcd7e2c0332e699561e9f7ba3290f6db4e153a64736f6c63430008180033",
  "linkReferences": {},
  "deployedLinkReferences": {}
}